02028/03/2024NSI0830                                                                                                                                                                                                                        
0111980110000013862RWF900002401000100029915500000000000NYIRAKARERA  VERENE                               011-KIGALI                                        +250788320675/2004            0011-KIGALI                                        
0111980170000005877RWF700004801000100029915740000000000TUYIZERE  EMMANUEL                                017-MASAKA                                        +250788320675/2004            0017-MASAKA                                        
0111980910000009366RWF000002401000100029916220000000000IRAKIZA  FLORIN                                   091-RUHENGERI                                     +250788320675/2004            0091-RUHENGERI                                     
0111980120000003946RWF200002401000100029916460000000000UWIZEYIMANA  EMMANUEL                             012-RULI                                          +250788320675/2004            0012-RULI                                          
0111980130000002785RWF500002401000100029916700000000000TUYAMBAZE  GRACE                                  013-RULINDO                                       +250788320675/2004            0013-RULINDO                                       
0111980640000004468RWF500002401000100029916940000000000DUHUZIMBARAGA                                     064-MASHYUZA                                      +250788320675/2004            0064-MASHYUZA                                      
0111981020000003519RWF800002401000100029917180000000000UZABUKIRIHO  JEAN BAPTISTE                        102-RUSHAKI                                       +250788320675/2004            0102-RUSHAKI                                       
0111980310000001263RWF000002401000100029917420000000000CHORALE IMMACULEE CONCEPTION                      031-GITARAMA                                      +250788320675/2004            0031-GITARAMA                                      
0111981010000006486RWF700002401000100029917660000000000NAHAYO  AIMABLE                                   101-BYUMBA                                        +250788320675/2004            0101-BYUMBA                                        
0111981130000003875RWF200002401000100029917900000000000IZABAYO  VIATEUR                                  113-KIZIGURO                                      +250788320675/2004            0113-KIZIGURO                                      
0111980320000003740RWF500002401000100029918140000000000NCUTI  BLAISE                                     032-KAMONYI                                       +250788320675/2004            0032-KAMONYI                                       
0111980640000002236RWF800002401000100029918380000000000HABANABAKIZE  THOMAS                              064-MASHYUZA                                      +250788320675/2004            0064-MASHYUZA                                      
0111980240000000999RWF200002401000100029918620000000000MUTABAZI  FABRICE                                 024-NYABUGOGO                                     +250788320675/2004            0024-NYABUGOGO                                     
0111980720000003402RWF300002401000100029918860000000000YAMFASHIJE  VALENTINE                             072-NYANGE                                        +250788320675/2004            0072-NYANGE                                        
0111980510000004262RWF400002401000100029919100000000000NIYOYITA  ERNESTINE                               051-GIKONGORO                                     +250788320675/2004            0051-GIKONGORO                                     
0111981220000003258RWF900002401000100029919340000000000HITIMANA  YESAYA                                  122-GISHANDA                                      +250788320675/2004            0122-GISHANDA                                      
0111980710000000994RWF200002401000100029919580000000000TUYISENGE  SIMON                                  071-KIBUYE                                        +250788320675/2004            0071-KIBUYE                                        
0111980710000002824RWF900004801000100029919820000000000SOLIDARITE                                        071-KIBUYE                                        +250788320675/2004            0071-KIBUYE                                        
0111980410000007127RWF900002401000100029920300000000000IMBEREHEZA MPINGA                                 041-BUTARE                                        +250788320675/2004            0041-BUTARE                                        
0111980510000001453RWF200002401000100029920540000000000URINZWENIMANA  GREGOIRE                           051-GIKONGORO                                     +250788320675/2004            0051-GIKONGORO                                     
0111981220000003158RWF100002401000100029920780000000000TUYISENGE  OLIVIER                                122-GISHANDA                                      +250788320675/2004            0122-GISHANDA                                      
0111980230000003032RWF900002401000100029921020000000000NSANZIMANA  EDOUARD                               023-KIMIRONKO                                     +250788320675/2004            0023-KIMIRONKO                                     
0111981220000003260RWF500002401000100029921260000000000IYAKAREMYE  JEAN BAPTISTE                         122-GISHANDA                                      +250788320675/2004            0122-GISHANDA                                      
0111981220000003261RWF300002401000100029921500000000000NZABATSINDA  ALEXANDRE                            122-GISHANDA                                      +250788320675/2004            0122-GISHANDA                                      
0111981220000003262RWF100002401000100029921740000000000KADIYAMA NZIYUMVIRA  SERVE                        122-GISHANDA                                      +250788320675/2004            0122-GISHANDA                                      
0111981220000003263RWF900002401000100029921980000000000MUCUNGUZI  EVODE                                  122-GISHANDA                                      +250788320675/2004            0122-GISHANDA                                      
0111981130000004452RWF900004801000100029922220000000000NDAYISABA  VINCENT                                113-KIZIGURO                                      +250788320675/2004            0113-KIZIGURO                                      
0111980640000004486RWF700002401000100029922700000000000MANIRAGUHA  JEANNETTE                             064-MASHYUZA                                      +250788320675/2004            0064-MASHYUZA                                      
0111980120000003816RWF700002401000100029922940000000000KWIZERA  JEAN DE DIEU                             012-RULI                                          +250788320675/2004            0012-RULI                                          
0111981240000002629RWF200002401000100029923180000000000KUNDUMURIMO                                       124-KIBUNGO                                       +250788320675/2004            0124-KIBUNGO                                       
0111981220000003264RWF700002401000100029923420000000000ABUBATSI BAMAHORO                                 122-GISHANDA                                      +250788320675/2004            0122-GISHANDA                                      
0111981240000001564RWF200002401000100029923660000000000UMUHUZA  JOSIANE                                  124-KIBUNGO                                       +250788320675/2004            0124-KIBUNGO                                       
0111981020000003516RWF400002401000100029923900000000000UMUTAMENWA                                        102-RUSHAKI                                       +250788320675/2004            0102-RUSHAKI                                       
0111980110000007607RWF600004801000100029924140000000000NDUWAYEZU  ERIC                                   011-KIGALI                                        +250788320675/2004            0011-KIGALI                                        
0111980920000000247RWF100002401000100029924620000000000UWARUCAGU  JBERNARD                               092-BYANGABO                                      +250788320675/2004            0092-BYANGABO                                      
0111981130000003619RWF400002401000100029924860000000000MUGABO  BERNARD                                   113-KIZIGURO                                      +250788320675/2004            0113-KIZIGURO                                      
0111981130000005512RWF900002401000100029925100000000000KWIZERA  OBED                                     113-KIZIGURO                                      +250788320675/2004            0113-KIZIGURO                                      
0111980910000012229RWF500002401000100029925340000000000NSHIMIYIMANA  JEAN PAUL                           091-RUHENGERI                                     +250788320675/2004            0091-RUHENGERI                                     
0111980810000006854RWF000002401000100029925580000000000NIYONSABA  JEAN GRATIEN                           081-GISENYI                                       +250788320675/2004            0081-GISENYI                                       
0111980240000000081RWF900002401000100029925820000000000NTAMUTURANO  CELESTIN                             024-NYABUGOGO                                     +250788320675/2004            0024-NYABUGOGO                                     
0111981020000003517RWF200002401000100029926060000000000TURERERE IMANA  RUSHAKI                           102-RUSHAKI                                       +250788320675/2004            0102-RUSHAKI                                       
0111980410000007128RWF700002401000100029926300000000000NSHIMIYIMANA  SALOMON                             041-BUTARE                                        +250788320675/2004            0041-BUTARE                                        
0111980220000003443RWF800002401000100029926540000000000MUKAMAZIMPAKA  YUNISI                             022-RILIMA                                        +250788320675/2004            0022-RILIMA                                        
0111980910000003240RWF300002401000100029926780000000000AYINKAMIYE  MARIE YVONNE                          091-RUHENGERI                                     +250788320675/2004            0091-RUHENGERI                                     
0111980160000002872RWF100004801000100029927020000000000NYAKABINGO WOMEN IN MINING ASSOCIATION            016-SHYORONGI                                     +250788320675/2004            0016-SHYORONGI                                     
0111980610000005081RWF500002401000100029927500000000000CHORALE DONUM DEI                                 061-KAMEMBE                                       +250788320675/2004            0061-KAMEMBE                                       
0111980910000012220RWF400002401000100029927740000000000NDACYAYISENGA  ERIC                               091-RUHENGERI                                     +250788320675/2004            0091-RUHENGERI                                     
0111980210000003614RWF400002401000100029927980000000000ARR  "TWISUNGANE" NYARUGENGE                      021-RUHUHA                                        +250788320675/2004            0021-RUHUHA                                        
0111981210000005334RWF600002401000100029928220000000000DUKORE TWIGIRE NKAMBA                             121-KABARONDO                                     +250788320675/2004            0121-KABARONDO                                     
0111981010000006725RWF800002401000100029928460000000000SAFARI  MARC                                      101-BYUMBA                                        +250788320675/2004            0101-BYUMBA                                        
0111981120000000091RWF900002401000100029928700000000000SIKUNDA  FAUSTIN                                  112-NYARUREMA                                     +250788320675/2004            0112-NYARUREMA                                     
0111980640000004487RWF500002401000100029928940000000000TWITEZIMBERE  KINDOBWE                            064-MASHYUZA                                      +250788320675/2004            0064-MASHYUZA                                      
0111980410000006069RWF400002401000100029929180000000000MUHIRE  JEAN PIERRE                               041-BUTARE                                        +250788320675/2004            0041-BUTARE                                        
0111980130000002625RWF300002401000100029929420000000000NZABONIMPA  VENUSTE                               013-RULINDO                                       +250788320675/2004            0013-RULINDO                                       
0111981220000003165RWF600002401000100029929660000000000ABIBA  ITENGYA JAQUELINE                          122-GISHANDA                                      +250788320675/2004            0122-GISHANDA                                      
0111980160000003061RWF000002401000100029929900000000000UMULISA  CARINE                                   016-SHYORONGI                                     +250788320675/2004            0016-SHYORONGI                                     
0111981220000003167RWF200002401000100029930140000000000RAFIKI  NGIRABATWARE JOEL                         122-GISHANDA                                      +250788320675/2004            0122-GISHANDA                                      
0111981220000002788RWF600002401000100029930380000000000HABANABAKIZE  CELESTIN                            122-GISHANDA                                      +250788320675/2004            0122-GISHANDA                                      
0111981130000005514RWF500002401000100029930620000000000HABIMANA  CHARLES                                 113-KIZIGURO                                      +250788320675/2004            0113-KIZIGURO                                      
0111980190000002539RWF600002401000100029930860000000000TUYISENGE  MARIE                                  019-NYAMATA                                       +250788320675/2004            0019-NYAMATA                                       
0111980110000019628RWF800002401000100029931100000000000UHORAKEYE  EMMA MARIE                             011-KIGALI                                        +250788320675/2004            0011-KIGALI                                        
0111980610000005348RWF800004801000100029931340000000000IKIMINA AHEZA                                     061-KAMEMBE                                       +250788320675/2004            0061-KAMEMBE                                       
0111981130000004657RWF300002401000100029931820000000000MUNYAMPUNDU  JEAN                                 113-KIZIGURO                                      +250788320675/2004            0113-KIZIGURO                                      
0111980610000006204RWF200002401000100029932060000000000MUHOZA  PATRICK                                   061-KAMEMBE                                       +250788320675/2004            0061-KAMEMBE                                       
0111980910000011274RWF200002401000100029932300000000000NZIYONSENGA  JEAN DE LA COIX                      091-RUHENGERI                                     +250788320675/2004            0091-RUHENGERI                                     
0111980810000006853RWF200002401000100029932540000000000MUGWANEZA  THEOPHILE                              081-GISENYI                                       +250788320675/2004            0081-GISENYI                                       
0111980810000006855RWF700002401000100029932780000000000MOUVEMENT XAVERI DIOCES NYUNDO / ZONE GISENYI     081-GISENYI                                       +250788320675/2004            0081-GISENYI                                       
0111980510000004264RWF000002401000100029933020000000000NTAKIRUTIMANA  ELIE                               051-GIKONGORO                                     +250788320675/2004            0051-GIKONGORO                                     
0111981110000003689RWF700002401000100029933260000000000NKURUNZIZA  FRANCOIS                              111-NYAGATARE                                     +250788320675/2004            0111-NYAGATARE                                     
0111980910000001762RWF800002401000100029933500000000000USHIZIMPUMU  THEONESTE                            091-RUHENGERI                                     +250788320675/2004            0091-RUHENGERI                                     
0111980110000019889RWF600002401000100029933740000000000TEDDY BUSINESS GROUP LTD                          011-KIGALI                                        +250788320675/2004            0011-KIGALI                                        
0111980170000002297RWF100002401000100029933980000000000MANIRAGUHA  TELESPHORE                            017-MASAKA                                        +250788320675/2004            0017-MASAKA                                        
0111981130000005517RWF800002401000100029934220000000000NYIRANSEKANABO  BERANCILLE                        113-KIZIGURO                                      +250788320675/2004            0113-KIZIGURO                                      
0111981130000005518RWF600002401000100029934460000000000NDAYISHIMIYE  FRANCK                              113-KIZIGURO                                      +250788320675/2004            0113-KIZIGURO                                      
0111980180000002353RWF200002401000100029934700000000000VSL CARE TWIFATANYE KADASUMBWA                    018-MUSHA                                         +250788320675/2004            0018-MUSHA                                         
0111981130000005520RWF200002401000100029934940000000000MUJAWAMARIYA  ALPHONSINE                          113-KIZIGURO                                      +250788320675/2004            0113-KIZIGURO                                      
0111980230000002622RWF800002401000100029935180000000000SEBACURUZI DISTRIBUTOR LTD                        023-KIMIRONKO                                     +250788320675/2004            0023-KIMIRONKO                                     
0111981130000005526RWF900002401000100029935420000000000MUKAKARERA   VALERIE                              113-KIZIGURO                                      +250788320675/2004            0113-KIZIGURO                                      
0111980110000018603RWF200004801000100029935660000000000NTAKIRUTIMANA  DANNY                              011-KIGALI                                        +250788320675/2004            0011-KIGALI                                        
0111981130000005527RWF700002401000100029936140000000000SHEMA  OBED                                       113-KIZIGURO                                      +250788320675/2004            0113-KIZIGURO                                      
0111981130000005524RWF400002401000100029936380000000000MURINDANGABO   JEAN CLAUDE                        113-KIZIGURO                                      +250788320675/2004            0113-KIZIGURO                                      
0111980220000000100RWF700002401000100029936620000000000KUBWIMANA  CHRISPIN                               022-RILIMA                                        +250788320675/2004            0022-RILIMA                                        
0111980220000003440RWF400002401000100029936860000000000NSHIMIYIMANA  OSCAR                               022-RILIMA                                        +250788320675/2004            0022-RILIMA                                        
0111981110000003688RWF900002401000100029937100000000000TURINUMUKAZA  EPAPHRODITE                         111-NYAGATARE                                     +250788320675/2004            0111-NYAGATARE                                     
0111980170000005932RWF000002401000100029937340000000000UWAMAHORO  CHRISTINE                              017-MASAKA                                        +250788320675/2004            0017-MASAKA                                        
0111980190000002537RWF000002401000100029937580000000000MASENGESHO  ODETTE                                019-NYAMATA                                       +250788320675/2004            0019-NYAMATA                                       
0111981220000003259RWF700002401000100029937820000000000BARIBWIRIZA  JEAN DAMASCENE                       122-GISHANDA                                      +250788320675/2004            0122-GISHANDA                                      
0111981240000002628RWF400002401000100029938060000000000TERIMBEREMUHINZI RWIMO  ASSOFI                    124-KIBUNGO                                       +250788320675/2004            0124-KIBUNGO                                       
0111981130000005510RWF300002401000100029938300000000000MUKAMAHORO  EMELINE                               113-KIZIGURO                                      +250788320675/2004            0113-KIZIGURO                                      
0111981130000005511RWF100002401000100029938540000000000MUNYAMPUNDU  PASCAL                               113-KIZIGURO                                      +250788320675/2004            0113-KIZIGURO                                      
0111980710000000915RWF700002401000100029938780000000000NGIRABAKUNZI  JEREMIE                             071-KIBUYE                                        +250788320675/2004            0071-KIBUYE                                        
0111980720000003339RWF700002401000100029939020000000000NYIRANZIZA  DENYSE                                072-NYANGE                                        +250788320675/2004            0072-NYANGE                                        
0111980120000000969RWF700002401000100029939260000000000TURAHIMANA  ILDEPHONSE                            012-RULI                                          +250788320675/2004            0012-RULI                                          
0111981220000001370RWF400004801000100029939500000000000SCHOOL FEEDING GS GISHANDA                        122-GISHANDA                                      +250788320675/2004            0122-GISHANDA                                      
0111980180000002596RWF600004801000100029939980000000000UMUHOZA  ANGELIQUE                                018-MUSHA                                         +250788320675/2004            0018-MUSHA                                         
0111980230000002564RWF200002401000100029940460000000000MUSANZE LIME COMPANY LTD(MULIMECO LTD)            023-KIMIRONKO                                     +250788320675/2004            0023-KIMIRONKO                                     
0111980120000003933RWF000002401000100029940700000000000NKURIKIYIMANA  VENUSTE                            012-RULI                                          +250788320675/2004            0012-RULI                                          
0111980310000000556RWF800004801000100029940940000000000ATRADIKA                                          031-GITARAMA                                      +250788320675/2004            0031-GITARAMA                                      
0111980220000002748RWF100002401000100029941420000000000NDAHABO  ALEXIS                                   022-RILIMA                                        +250788320675/2004            0022-RILIMA                                        
0111980910000012235RWF200002401000100029941660000000000UWASE  CLAUDINE                                   091-RUHENGERI                                     +250788320675/2004            0091-RUHENGERI                                     
0111980640000002232RWF700002401000100029941900000000000NTAKIRUTIMANA  APHRODIS                           064-MASHYUZA                                      +250788320675/2004            0064-MASHYUZA                                      
0111981130000005513RWF700002401000100029942140000000000UWIMPUHWE  LILIANE                                113-KIZIGURO                                      +250788320675/2004            0113-KIZIGURO                                      
0111980630000000955RWF500002401000100029942380000000000NZEYIMANA  FRÉDÉRIC                               063-MUSHAKA                                       +250788320675/2004            0063-MUSHAKA                                       
0111981010000006101RWF200002401000100029942620000000000IRADUKUNDA  JEAN D'AMOUR                          101-BYUMBA                                        +250788320675/2004            0101-BYUMBA                                        
0111980510000003661RWF800002401000100029942860000000000RIGHT BROTHERS  GROUP ( RBG)                      051-GIKONGORO                                     +250788320675/2004            0051-GIKONGORO                                     
0111980640000002547RWF800002401000100029943100000000000SINGIRANKABO  ALLY MICHEL                         064-MASHYUZA                                      +250788320675/2004            0064-MASHYUZA                                      
0111980230000003033RWF700002401000100029943340000000000MPORE BUSINESS GROUP LTD                          023-KIMIRONKO                                     +250788320675/2004            0023-KIMIRONKO                                     
0111980150000002469RWF600002401000100029943580000000000PAROISSE MBOGO                                    015-RWANKUBA                                      +250788320675/2004            0015-RWANKUBA                                      
0111980910000003228RWF800002401000100029943820000000000BITINDI  JOSEPH                                   091-RUHENGERI                                     +250788320675/2004            0091-RUHENGERI                                     
0111980110000018364RWF100002401000100029944060000000000MISTER  GILBERT                                   011-KIGALI                                        +250788320675/2004            0011-KIGALI                                        
0111980610000001913RWF300002401000100029944300000000000ASSOCIATION END SECTEURCYANGUGU                   061-KAMEMBE                                       +250788320675/2004            0061-KAMEMBE                                       
0111980640000004488RWF300002401000100029944540000000000UKWISHAKA  IDRISSA                                064-MASHYUZA                                      +250788320675/2004            0064-MASHYUZA                                      
0111981020000003518RWF000002401000100029944780000000000NIRINGIYIMANA  JEAN D'AMOUR                       102-RUSHAKI                                       +250788320675/2004            0102-RUSHAKI                                       
0111980510000004263RWF200002401000100029945020000000000ITSINDA UBUMWE UNIT                               051-GIKONGORO                                     +250788320675/2004            0051-GIKONGORO                                     
0111981010000004678RWF100002401000100029945260000000000NIYOGISUBIZO  FABRICE                             101-BYUMBA                                        +250788320675/2004            0101-BYUMBA                                        
0111981220000003166RWF400002401000100029945500000000000NYIRANEZA  BIZABISHAKA LOUISE                     122-GISHANDA                                      +250788320675/2004            0122-GISHANDA                                      
0111981220000003168RWF000002401000100029945740000000000SEMABUMBA  UWIMANA ESPERENCE                      122-GISHANDA                                      +250788320675/2004            0122-GISHANDA                                      
0111981220000002701RWF900002401000100029945980000000000AMPEIRE  JULIAN                                   122-GISHANDA                                      +250788320675/2004            0122-GISHANDA                                      
0111981130000002987RWF600002401000100029946220000000000DUFATANYE KANYANGESE                              113-KIZIGURO                                      +250788320675/2004            0113-KIZIGURO                                      
0111980240000002969RWF300002401000100029946460000000000HARERIMANA  CHARLES                               024-NYABUGOGO                                     +250788320675/2004            0024-NYABUGOGO                                     
0111981130000005515RWF200002401000100029946700000000000HAVUGINOTI  XXXX                                  113-KIZIGURO                                      +250788320675/2004            0113-KIZIGURO                                      
0111981130000002638RWF500002401000100029946940000000000DUTEGANYIRIZE EJO HAZAZA C                        113-KIZIGURO                                      +250788320675/2004            0113-KIZIGURO                                      
0111980810000004886RWF400002401000100029947180000000000RUCYAHA  ANASTASE                                 081-GISENYI                                       +250788320675/2004            0081-GISENYI                                       
0111980410000000263RWF900002401000100029947420000000000ABBE NDAHIMANA  VENUSTE                           041-BUTARE                                        +250788320675/2004            0041-BUTARE                                        
0111980910000003944RWF000002401000100029947660000000000HAKIZAMUNGU  ISDOR                                091-RUHENGERI                                     +250788320675/2004            0091-RUHENGERI                                     
0111980710000003039RWF300004801000100029947900000000000NKUNZABO  ALPHONSE                                071-KIBUYE                                        +250788320675/2004            0071-KIBUYE                                        
0111981130000005516RWF000002401000100029948380000000000UWITONZE  OLIVE                                   113-KIZIGURO                                      +250788320675/2004            0113-KIZIGURO                                      
0111981130000005519RWF400002401000100029948620000000000AYINGENEYE  VERENA                                113-KIZIGURO                                      +250788320675/2004            0113-KIZIGURO                                      
0111981010000002615RWF500002401000100029948860000000000MUKAMANA  ROSE                                    101-BYUMBA                                        +250788320675/2004            0101-BYUMBA                                        
0111981130000005525RWF100002401000100029949100000000000MUKASHURI  GENEROSE                               113-KIZIGURO                                      +250788320675/2004            0113-KIZIGURO                                      
0111981130000005521RWF000002401000100029949340000000000MUKASHARANGABO   MARIE GRACE                      113-KIZIGURO                                      +250788320675/2004            0113-KIZIGURO                                      
0111980610000005015RWF300002401000100029949580000000000FAMILLE                                           061-KAMEMBE                                       +250788320675/2004            0061-KAMEMBE                                       
0111980910000008571RWF600002401000100029949820000000000HABYARIMANA  FAUSTIN                              091-RUHENGERI                                     +250788320675/2004            0091-RUHENGERI                                     
0111980160000003046RWF100002401000100029950060000000000UWINGABIRE  DIANE                                 016-SHYORONGI                                     +250788320675/2004            0016-SHYORONGI                                     
0111980910000001888RWF100004801000100029950300000000000DUTIZANYIMBARAGA/RUHENGERI                        091-RUHENGERI                                     +250788320675/2004            0091-RUHENGERI                                     
0111980630000003659RWF000002401000100029950780000000000MUHIMPUNDU  DATIVE                                063-MUSHAKA                                       +250788320675/2004            0063-MUSHAKA                                       
0111980710000003752RWF100002401000100029951020000000000BAZAMBANZA  THEONESTE                             071-KIBUYE                                        +250788320675/2004            0071-KIBUYE                                        
0111981010000006686RWF200002401000100029951260000000000NDARUHUTSE  FRANCOIS                              101-BYUMBA                                        +250788320675/2004            0101-BYUMBA                                        
0111980320000003802RWF300002401000100029951500000000000BASENGIMANA  ALEXIS                               032-KAMONYI                                       +250788320675/2004            0032-KAMONYI                                       
0111980160000003063RWF600002401000100029951740000000000MUKANYANDWI  ESTHER                               016-SHYORONGI                                     +250788320675/2004            0016-SHYORONGI                                     
0111980120000003943RWF900002401000100029951980000000000UWIRAGIYE  JEAN BAPTISTE                          012-RULI                                          +250788320675/2004            0012-RULI                                          
0111980170000005930RWF400002401000100029952220000000000NZAYISENGA  JEAN MARIE VIANNEY                    017-MASAKA                                        +250788320675/2004            0017-MASAKA                                        
0111980110000019172RWF700002401000100029952460000000000MUGAMBIRA  EDMOND                                 011-KIGALI                                        +250788320675/2004            0011-KIGALI                                        
0111980240000002965RWF100002401000100029952700000000000YVETTE   MUHAWENIMANA                             024-NYABUGOGO                                     +250788320675/2004            0024-NYABUGOGO                                     
0111980320000003803RWF100002401000100029952940000000000HIRWA  JEAN PAUL                                  032-KAMONYI                                       +250788320675/2004            0032-KAMONYI                                       
0111981010000006727RWF400002401000100029953180000000000NSHIMIYIMANA  PATRICK                             101-BYUMBA                                        +250788320675/2004            0101-BYUMBA                                        
0111980120000003944RWF700002401000100029953420000000000ABISHIMWE  JOSEPH                                 012-RULI                                          +250788320675/2004            0012-RULI                                          
0111980820000002514RWF400002401000100029953660000000000NZABONIMPA  JEAN CLAUDE                           082-MURAMBA                                       +250788320675/2004            0082-MURAMBA                                       
0111980230000003034RWF500002401000100029953900000000000NIYOKWIRINGIRWA  LUCIEN                           023-KIMIRONKO                                     +250788320675/2004            0023-KIMIRONKO                                     
0111980230000002669RWF900004801000100029954140000000000PAROISSE SANIT PAUL GISHAKA                       023-KIMIRONKO                                     +250788320675/2004            0023-KIMIRONKO                                     
0111980130000000545RWF500002401000100029954620000000000MANATURIKUMWE  XXX                                013-RULINDO                                       +250788320675/2004            0013-RULINDO                                       
0111980910000004173RWF500004801000100029954860000000000IKIMINA TUZAMURANE                                091-RUHENGERI                                     +250788320675/2004            0091-RUHENGERI                                     
0111980130000002776RWF400002401000100029955340000000000MUKANKURANGA  AGNES                               013-RULINDO                                       +250788320675/2004            0013-RULINDO                                       
0111980150000000031RWF600002401000100029955580000000000BARANTOTEZA  MAJOR CO                             015-RWANKUBA                                      +250788320675/2004            0015-RWANKUBA                                      
0111981240000000230RWF100002401000100029955820000000000AYINKAMIYE  JEANNINE                              124-KIBUNGO                                       +250788320675/2004            0124-KIBUNGO                                       
0111980130000002777RWF200002401000100029956060000000000NYIRABIZIMANA  CHANTAL                            013-RULINDO                                       +250788320675/2004            0013-RULINDO                                       
0111981130000005522RWF800002401000100029956300000000000NTEZIMANA  JILBERT                                113-KIZIGURO                                      +250788320675/2004            0113-KIZIGURO                                      
0111980310000005253RWF700002401000100029956540000000000LIVING HOPE CHURCH                                031-GITARAMA                                      +250788320675/2004            0031-GITARAMA                                      
0111980410000007129RWF500002401000100029956780000000000MUNYESHYAKA  FELIX                                041-BUTARE                                        +250788320675/2004            0041-BUTARE                                        
0111980610000006202RWF600002401000100029957020000000000NYANDWI  PHENIAS                                  061-KAMEMBE                                       +250788320675/2004            0061-KAMEMBE                                       
0111980310000005226RWF300002401000100029957260000000000NYWAYERA  MARIE CLAIRE                            031-GITARAMA                                      +250788320675/2004            0031-GITARAMA                                      
0111981130000001322RWF700004801000100029957500000000000UWIMANA  BÉATA                                    113-KIZIGURO                                      +250788320675/2004            0113-KIZIGURO                                      
0111980120000003942RWF100002401000100029957980000000000UWINGABIRE  OLIVE                                 012-RULI                                          +250788320675/2004            0012-RULI                                          
0111981020000000959RWF900004801000100029958220000000000E S KAMUTORA                                      102-RUSHAKI                                       +250788320675/2004            0102-RUSHAKI                                       
0111981020000000959RWF900004801000100029958700000000000E S KAMUTORA                                      102-RUSHAKI                                       +250788320675/2004            0102-RUSHAKI                                       
0111980910000010390RWF700002401000100029959180000000000MUKUNDUFITE  JOSEPHINE                            091-RUHENGERI                                     +250788320675/2004            0091-RUHENGERI                                     
0111981010000005629RWF300002401000100029959420000000000NDEGEYA  PATRICK                                  101-BYUMBA                                        +250788320675/2004            0101-BYUMBA                                        
0111980220000003442RWF000002401000100029959660000000000SANTARALI MUTAGATIFU STEFANO/ CYOMA               022-RILIMA                                        +250788320675/2004            0022-RILIMA                                        
0111981210000005335RWF300002401000100029959900000000000HITIMANA  BONAVANTURE                             121-KABARONDO                                     +250788320675/2004            0121-KABARONDO                                     
0111980220000003423RWF000002401000100029960140000000000DUSABIMANA  MARIE ROSE                            022-RILIMA                                        +250788320675/2004            0022-RILIMA                                        
0111981010000006728RWF200002401000100029960380000000000NTIRENGANYA  THOMAS                               101-BYUMBA                                        +250788320675/2004            0101-BYUMBA                                        
0111981030000002556RWF100002401000100029960620000000000IZERE  CLARISSE                                   103-MUHURA                                        +250788320675/2004            0103-MUHURA                                        
0111980620000002773RWF000002401000100029960860000000000MBONANKIRA  JONAS                                 062-MWEZI                                         +250788320675/2004            0062-MWEZI                                         
0111980720000003414RWF800002401000100029961100000000000TWUNGUBUMWE                                       072-NYANGE                                        +250788320675/2004            0072-NYANGE                                        
0111980720000003415RWF500002401000100029961340000000000TWITEZIMBERE MUMIRYANGO                           072-NYANGE                                        +250788320675/2004            0072-NYANGE                                        
0111980910000004309RWF500004801000100029961580000000000WISEWOMEN                                         091-RUHENGERI                                     +250788320675/2004            0091-RUHENGERI                                     
0111980920000002841RWF900002401000100029962060000000000SEBABA  DANIEL                                    092-BYANGABO                                      +250788320675/2004            0092-BYANGABO                                      
0111980240000001548RWF600004801000100029962300000000000NIZEYIMANA  ERIC                                  024-NYABUGOGO                                     +250788320675/2004            0024-NYABUGOGO                                     
0111980630000003765RWF500002401000100029962780000000000AHARUBUMWE  MARIANE                               063-MUSHAKA                                       +250788320675/2004            0063-MUSHAKA                                       
0111980910000011233RWF800002401000100029963020000000000MUSABYIMANA  FABIEN                               091-RUHENGERI                                     +250788320675/2004            0091-RUHENGERI                                     
0111981220000003269RWF600002401000100029963260000000000KARAMUZI  VIANNEY                                 122-GISHANDA                                      +250788320675/2004            0122-GISHANDA                                      
0111981220000003270RWF400002401000100029963500000000000HARERIMANA  GASPARD                               122-GISHANDA                                      +250788320675/2004            0122-GISHANDA                                      
0111981220000003271RWF200002401000100029963740000000000ASSOFI TWIYUBAKE MUGANZA                          122-GISHANDA                                      +250788320675/2004            0122-GISHANDA                                      
0111980240000002971RWF900002401000100029963980000000000CHORAL HIMBAZA                                    024-NYABUGOGO                                     +250788320675/2004            0024-NYABUGOGO                                     
0111980510000001081RWF100002401000100029964220000000000KYORIBONA  BERNARD                                051-GIKONGORO                                     +250788320675/2004            0051-GIKONGORO                                     
0111981030000000570RWF400002401000100029964460000000000SINGURANAYO  EMMANUEL                             103-MUHURA                                        +250788320675/2004            0103-MUHURA                                        
0111981010000003393RWF800002401000100029964700000000000NSENGIMANA  JEAN  CLAUDE                          101-BYUMBA                                        +250788320675/2004            0101-BYUMBA                                        
0111981120000002663RWF300002401000100029964940000000000NIRINGIYIMANA  SIMÉON                             112-NYARUREMA                                     +250788320675/2004            0112-NYARUREMA                                     
0111981210000003265RWF400002401000100029965180000000000NIYONGABO  BRIAN                                  121-KABARONDO                                     +250788320675/2004            0121-KABARONDO                                     
0111981210000003265RWF400002401000100029965420000000000NIYONGABO  BRIAN                                  121-KABARONDO                                     +250788320675/2004            0121-KABARONDO                                     
0111980210000003671RWF400002401000100029965660000000000NKURIKIYIMANA  EMMANUEL                           021-RUHUHA                                        +250788320675/2004            0021-RUHUHA                                        
0111980230000000345RWF800002401000100029965900000000000TWIZERE  EVARISTE                                 023-KIMIRONKO                                     +250788320675/2004            0023-KIMIRONKO                                     
0111981010000006729RWF000002401000100029966140000000000TWITEZIMBERENIRIRE                                101-BYUMBA                                        +250788320675/2004            0101-BYUMBA                                        
0111980140000004714RWF300002401000100029966380000000000NGIZWENAYO  JEAN BOSCO                            014-RUTONGO                                       +250788320675/2004            0014-RUTONGO                                       
0111980110000002351RWF600002401000100029966620000000000NSABIMANA  JEAN PIERRE                            011-KIGALI                                        +250788320675/2004            0011-KIGALI                                        
0111981110000003406RWF600002401000100029966860000000000UWITONZE  EVELINE                                 111-NYAGATARE                                     +250788320675/2004            0111-NYAGATARE                                     
0111981130000005529RWF300002401000100029967100000000000NYIRABAGISHA  DOROSSERA                           113-KIZIGURO                                      +250788320675/2004            0113-KIZIGURO                                      
0111981130000002936RWF300002401000100029967340000000000NSANZIMANA  FULGENCE                              113-KIZIGURO                                      +250788320675/2004            0113-KIZIGURO                                      
0111980160000003047RWF900002401000100029967580000000000UWERA  CLARISSE                                   016-SHYORONGI                                     +250788320675/2004            0016-SHYORONGI                                     
0111980160000003048RWF700002401000100029967820000000000AKIMANA  SIFA                                     016-SHYORONGI                                     +250788320675/2004            0016-SHYORONGI                                     
0111981240000002622RWF700002401000100029968060000000000CHRIST ROI 1 BETHELEHEM                           124-KIBUNGO                                       +250788320675/2004            0124-KIBUNGO                                       
0111981240000002630RWF000002401000100029968300000000000DUSABE  YVONNE                                    124-KIBUNGO                                       +250788320675/2004            0124-KIBUNGO                                       
0111980510000000832RWF800002401000100029968540000000000UWAMARIYA  ALPHONSINE                             051-GIKONGORO                                     +250788320675/2004            0051-GIKONGORO                                     
0111980220000003428RWF900002401000100029968780000000000IMBEREHEZA FAMILLY                                022-RILIMA                                        +250788320675/2004            0022-RILIMA                                        
0111981010000006726RWF600002401000100029969020000000000TWIZEYIMANA  PATRICK                              101-BYUMBA                                        +250788320675/2004            0101-BYUMBA                                        
0111980620000002772RWF200002401000100029969260000000000NISHIMWE  FELIX                                   062-MWEZI                                         +250788320675/2004            0062-MWEZI                                         
0111980810000006856RWF500004801000100029969500000000000GROUPE CHARSIMATIQUE/IMPUHWE Z,IMANA / BUGOYI     081-GISENYI                                       +250788320675/2004            0081-GISENYI                                       
0111980140000000513RWF300004801000100029969980000000000PAROISSE  RUTONGO C2166                           014-RUTONGO                                       +250788320675/2004            0014-RUTONGO                                       
0111980130000002784RWF800002401000100029970460000000000NYIRINGABIRE  JEAN  DE DIEU                       013-RULINDO                                       +250788320675/2004            0013-RULINDO                                       
0111980190000002540RWF400002401000100029970700000000000MUKAKIMENYI  MADELEINE                            019-NYAMATA                                       +250788320675/2004            0019-NYAMATA                                       
0111981010000005877RWF800002401000100029970940000000000UWIMBABAZI  FRANCINE                              101-BYUMBA                                        +250788320675/2004            0101-BYUMBA                                        
0111981010000006720RWF900002401000100029971180000000000TWOROZANYE                                        101-BYUMBA                                        +250788320675/2004            0101-BYUMBA                                        
0111981020000001221RWF300002401000100029971420000000000MUSHIMIYIMANA  MILTON                             102-RUSHAKI                                       +250788320675/2004            0102-RUSHAKI                                       
0111981020000001735RWF200002401000100029971660000000000MUYIZERE  JEAN CLAUDE                             102-RUSHAKI                                       +250788320675/2004            0102-RUSHAKI                                       
0111980410000005055RWF400002401000100029971900000000000TUYISHIMIRE  JEAN CLAUDE                          041-BUTARE                                        +250788320675/2004            0041-BUTARE                                        
0111980410000005364RWF000002401000100029972140000000000UWAMBAJIMANA  ALIVERA                             041-BUTARE                                        +250788320675/2004            0041-BUTARE                                        
0111980510000004266RWF500002401000100029972380000000000ACCUM                                             051-GIKONGORO                                     +250788320675/2004            0051-GIKONGORO                                     
0111980810000006857RWF300002401000100029972620000000000NTAGISANIMANA  SPECIOSE                           081-GISENYI                                       +250788320675/2004            0081-GISENYI                                       
0111980410000002023RWF500002401000100029972860000000000GAHONGAYIRE  FRANÇOIS XAVIER                      041-BUTARE                                        +250788320675/2004            0041-BUTARE                                        
0111980130000002781RWF400002401000100029973100000000000MUKANTAGUNGIRA  MARIE  GORETHE                    013-RULINDO                                       +250788320675/2004            0013-RULINDO                                       
0111980910000000098RWF800002401000100029973340000000000NDAGIJIMANA  MARTIN                               091-RUHENGERI                                     +250788320675/2004            0091-RUHENGERI                                     
0111981130000005502RWF000002401000100029973580000000000IYAKAREMYE  DAMASCENE                             113-KIZIGURO                                      +250788320675/2004            0113-KIZIGURO                                      
0111980220000003260RWF600002401000100029973820000000000NDAYISHIMIYE  ELISA                               022-RILIMA                                        +250788320675/2004            0022-RILIMA                                        
0111980120000003799RWF500002401000100029974060000000000LOVELY FAMILY MURATANKWAYA                        012-RULI                                          +250788320675/2004            0012-RULI                                          
0111980110000006992RWF300002401000100029974300000000000NSENGUMUREMYI  EDOWARDO                           011-KIGALI                                        +250788320675/2004            0011-KIGALI                                        
0111980160000003062RWF800002401000100029974540000000000MUKANDINDA  CLEMENTINE                            016-SHYORONGI                                     +250788320675/2004            0016-SHYORONGI                                     
0111980110000000198RWF300002401000100029974780000000000RUSHIGAJIKI  JEAN PIERRE                          011-KIGALI                                        +250788320675/2004            0011-KIGALI                                        
0111980510000004265RWF700002401000100029975020000000000NSHIMYIMANA  FRODOUARD                            051-GIKONGORO                                     +250788320675/2004            0051-GIKONGORO                                     
0111980610000006206RWF700002401000100029975260000000000ISHIMWE  JEAN D'AMOUR                             061-KAMEMBE                                       +250788320675/2004            0061-KAMEMBE                                       
0111980170000003297RWF000002401000100029975500000000000MUKARUKUNDO  EGIDIE                               017-MASAKA                                        +250788320675/2004            0017-MASAKA                                        
0111981010000006705RWF000002401000100029975740000000000SETH  JEAN MARIE VIANNEY                          101-BYUMBA                                        +250788320675/2004            0101-BYUMBA                                        
0111981130000005528RWF500002401000100029975980000000000DUTABARANE ABANYAMURAVA                           113-KIZIGURO                                      +250788320675/2004            0113-KIZIGURO                                      
0111980110000002837RWF400004801000100029976220000000000UWAMUNGU  MARTIN                                  011-KIGALI                                        +250788320675/2004            0011-KIGALI                                        
0111980110000015059RWF000004801000100029976700000000000PAPETERIE ESPOIR LTD                              011-KIGALI                                        +250788320675/2004            0011-KIGALI                                        
0111980320000003804RWF900002401000100029977180000000000URUMURI MPUNGWE                                   032-KAMONYI                                       +250788320675/2004            0032-KAMONYI                                       
0111980130000002778RWF000002401000100029977420000000000AKIMANA  EPIPHANIE                                013-RULINDO                                       +250788320675/2004            0013-RULINDO                                       
0111980140000004712RWF700002401000100029977660000000000ISHINGWA RYA PARUWASI KARAMBO                     014-RUTONGO                                       +250788320675/2004            0014-RUTONGO                                       
0111980170000005933RWF800002401000100029977900000000000NTAZINDA  EVARISTE                                017-MASAKA                                        +250788320675/2004            0017-MASAKA                                        
0111980230000002838RWF000004801000100029978140000000000AGASANDUKU K'UBWISUNGANE                          023-KIMIRONKO                                     +250788320675/2004            0023-KIMIRONKO                                     
0111980610000006205RWF900002401000100029978620000000000DUFITIMANA  RAVIE                                 061-KAMEMBE                                       +250788320675/2004            0061-KAMEMBE                                       
0111981130000001277RWF300002401000100029978860000000000MBARUSHIMANA  THEONESTE                           113-KIZIGURO                                      +250788320675/2004            0113-KIZIGURO                                      
0111981130000005315RWF700002401000100029979100000000000KABASANGA  DONATHA                                113-KIZIGURO                                      +250788320675/2004            0113-KIZIGURO                                      
0111980140000004713RWF500002401000100029979340000000000CLAUDE AND XAVIER GROUPE                          014-RUTONGO                                       +250788320675/2004            0014-RUTONGO                                       
0111980110000010016RWF500002401000100029979580000000000NIYOMUGABO  JPIERRE                               011-KIGALI                                        +250788320675/2004            0011-KIGALI                                        
0111980110000017361RWF800004801000100029979820000000000NKUEUG LTD                                        011-KIGALI                                        +250788320675/2004            0011-KIGALI                                        
0111980610000006188RWF700002401000100029980300000000000NIYITEGEKA  PHENIAS                               061-KAMEMBE                                       +250788320675/2004            0061-KAMEMBE                                       
0111980220000002439RWF700002401000100029980540000000000IKIMINA/TWISUNGANE                                022-RILIMA                                        +250788320675/2004            0022-RILIMA                                        
0111980910000012104RWF000002401000100029980780000000000BENIMANA  JEAN D'AMOUR                            091-RUHENGERI                                     +250788320675/2004            0091-RUHENGERI                                     
0111980220000003356RWF200002401000100029981020000000000ISHIMWE  SERGINE                                  022-RILIMA                                        +250788320675/2004            0022-RILIMA                                        
0111980110000019891RWF200004801000100029981260000000000BRIDGE DESIGN LTD                                 011-KIGALI                                        +250788320675/2004            0011-KIGALI                                        
0111981010000005491RWF800002401000100029981740000000000ITANGISHAKA  INNOCENT                             101-BYUMBA                                        +250788320675/2004            0101-BYUMBA                                        
0111980110000007320RWF600002401000100029981980000000000NTACYABUKUYE  JONATHAN                            011-KIGALI                                        +250788320675/2004            0011-KIGALI                                        
0111980170000005726RWF600002401000100029982220000000000NKUNDA  MICHEL                                    017-MASAKA                                        +250788320675/2004            0017-MASAKA                                        
0111980810000000451RWF100004801000100029982460000000000OEUVRES                                           081-GISENYI                                       +250788320675/2004            0081-GISENYI                                       
0111980920000000634RWF000004801000100029982940000000000SEZIBERA MPARIRWA  MODESTE                        092-BYANGABO                                      +250788320675/2004            0092-BYANGABO                                      
0111981240000002631RWF800002401000100029983420000000000MAHIRANE  JOSEPH                                  124-KIBUNGO                                       +250788320675/2004            0124-KIBUNGO                                       
0111980210000003670RWF600002401000100029983660000000000NTAGERURA  ANDRE                                  021-RUHUHA                                        +250788320675/2004            0021-RUHUHA                                        
0111981010000006719RWF100002401000100029983900000000000TWIZERIMANA  STRATON                              101-BYUMBA                                        +250788320675/2004            0101-BYUMBA                                        
0111980820000002088RWF900002401000100029984140000000000MANIRAKIZA  GERVAIS                               082-MURAMBA                                       +250788320675/2004            0082-MURAMBA                                       
0111981020000003087RWF600002401000100029984380000000000MBAKESHUMUGABE  EMMANUEL                          102-RUSHAKI                                       +250788320675/2004            0102-RUSHAKI                                       
0111980130000002786RWF300002401000100029984620000000000HAKORIMANA  EMMANUEL                              013-RULINDO                                       +250788320675/2004            0013-RULINDO                                       
0111981240000000623RWF700002401000100029984860000000000PFUKAMUSENGE  FRANCOIS XAVIER                     124-KIBUNGO                                       +250788320675/2004            0124-KIBUNGO                                       
0111980640000004452RWF900002401000100029985100000000000TUYISHIME  HONORATHA                              064-MASHYUZA                                      +250788320675/2004            0064-MASHYUZA                                      
0111980710000003544RWF200002401000100029985340000000000NIYIGENA  GISELE                                  071-KIBUYE                                        +250788320675/2004            0071-KIBUYE                                        
0111980640000003955RWF200002401000100029985580000000000UBUMWE AGENT                                      064-MASHYUZA                                      +250788320675/2004            0064-MASHYUZA                                      
0111980410000007121RWF200002401000100029985820000000000HARERIMANA  GERARD                                041-BUTARE                                        +250788320675/2004            0041-BUTARE                                        
0111981130000005509RWF500002501000100029986060000000000BYARUGABA  ORESTE                                 113-KIZIGURO                                      +250788320675/2004            0113-KIZIGURO                                      
0111980220000003440RWF400002401000100029986310000000000NSHIMIYIMANA  OSCAR                               022-RILIMA                                        +250788320675/2004            0022-RILIMA                                        
0111980820000002515RWF100002401000100029986550000000000ASSOF ABAHARANIRA ITERAMBERE                      082-MURAMBA                                       +250788320675/2004            0082-MURAMBA                                       
0111981130000005426RWF200002401000100029986790000000000MUKAMUSANA  ANGELIQUE                             113-KIZIGURO                                      +250788320675/2004            0113-KIZIGURO                                      
0111981020000000138RWF000002401000100029987030000000000BUTERA  BONIFACE                                  102-RUSHAKI                                       +250788320675/2004            0102-RUSHAKI                                       
0111980110000018027RWF400004801000100029987270000000000TUZAMURANE/ NYAMIRAMBO                            011-KIGALI                                        +250788320675/2004            0011-KIGALI                                        
0111980240000000037RWF100002401000100029987750000000000RUTABANA  MAHARARIYERI                            024-NYABUGOGO                                     +250788320675/2004            0024-NYABUGOGO                                     
0111981220000002852RWF000002401000100029987990000000000MURORUNKWERE  JUDITH                              122-GISHANDA                                      +250788320675/2004            0122-GISHANDA                                      
0111981220000003222RWF500002401000100029988230000000000NYIRANSABIMANA  NOELLA                            122-GISHANDA                                      +250788320675/2004            0122-GISHANDA                                      
0111980110000006447RWF800002401000100029988470000000000NZARAMYIMANA  ALEXIS                              011-KIGALI                                        +250788320675/2004            0011-KIGALI                                        
013000276000276                                                                                                                                                                                                                              
